:020000040000FA
:0400000080315F28C4
:100008007E1480312700991C1A2820002108031D1E
:100018001A282003031D1A280130DA005A08A10003
:10002800A0010E110B10270099105D280B181F282E
:100038002700991C22280B10270099100B1D5D28FA
:1000480082318822803120002103031D2E2880312F
:100058006D2080310A30F0000030F10020004408A3
:10006800DB004308DA00C30A0319C40A5A08F2007D
:100078005B08F3008231B722803170087104031DD8
:10008800592803102000C60D0E0E890C0139DA001C
:100098005A08C6040F304605DA0003305A06031D15
:1000A80059280130DA005A08A0000B11E730200067
:1000B80095007E10090080316128FD012030840000
:1000C800003085002830833157237E10200083318B
:1000D8005D2B20008E1C752801302000A7070030FA
:1000E800A83D01302000A9070030AA3D00302A02AF
:1000F800643003192902031C08002808F1002000B5
:100108002708F00082313D2280312000C8004808CD
:10011800D7002000A901AA01A701A80105302000E5
:100128005706031DA12801302000A2000030AD00B1
:100138000030AC000130AB00080020002208031991
:1001480008000430200057060319080020308600F4
:10015800003087004B312D30C8000030C900403FC7
:100168004807CA00413F493DCB004A0886004B0872
:1001780087005708810001302000AB070030AC3DF4
:1001880000302C020B3003192B02031C08002E0828
:100198000319D8282F080319D8280030A2000030E6
:1001A800A100AB01AC01080023082000C800C90168
:1001B8004808CD004908CE00200024082000C800C7
:1001C800C9014808CF004908D000200030082000A5
:1001D800C8000230C835890BEE28200031082000FD
:1001E8004807C90049082000A30032082000C800B9
:1001F8000430C835890BFD28200033082000C900C9
:100208000130C935FF3E031D052949354807CA0095
:100218002000340820004A07CB004B082000A40027
:100228002000D901D801D80A0A3058020318352904
:100238005808C800C9012D30CA000030CB00480852
:100248004A07860049084B3D87000108CC004C0846
:10025800D9060130C8004808D8070A305802031CDC
:100268001C29590803193C2903305906031D4E2936
:10027800200037184E290230370603194729200075
:10028800D101D2014C290C302000D1000030D2001D
:1002980051086C29200059030319562902305906C0
:1002A800031D71292000370303195E29033037061F
:1002B800031D712903303706031966292000D3016D
:1002C800D4016B290C302000D3000030D40053082F
:1002D800C80048082000A307792900302000A200A0
:1002E8000030A100AB01AC01080023082000C800C1
:1002F800C9014E084906031D83294D084806031DF8
:100308009229200024082000C800C9015008490685
:10031800031D90294F0848060319952983313F2367
:10032800803100302000A20020000E15003020008F
:10033800A100AB01AC012000D501D6015608803AD6
:10034800C80080304802031DAB2914305502031839
:1003580008002D302000C8000030C90055084807A3
:10036800CA005608493DCB004A0886004B0887005A
:10037800053081000130D5070030D63DA2298B1702
:100388008B158B1621001908FC39023899001908B9
:10039800873950389900951195121508F83904389D
:1003A8009500E73020009500210095138C0122006C
:1003B8008C0124008C0127009101920121008D01FC
:1003C80022008D0124008D01270094019501210050
:1003D8008E0122008E01013024008E002700970133
:1003E800980121008E1624008E1621008E142400F8
:1003F8008E14270097142000A301A401A501A601CB
:10040800A001A101A201A701A801A901AA01AB01AC
:10041800AC012100A101A2012208803AA00080308D
:100428002002031D192A143021020318332A05302B
:100438002100A00021082D3E8600870120088100A8
:100448000130A1070030A23D2208803AA000803088
:100458002002031D312A14302102031C1B2A20000C
:100468008D150E1121000E1424000E148331322331
:10047800080000307102053003197002031C4D2A70
:10048800003071020F300319700203184D2A003032
:100498000800003071020F3003197002031C5D2A36
:1004A8000030710219300319700203185D2A0130F7
:1004B800080000307102193003197002031C6D2AFC
:1004C8000030710223300319700203186D2A0230BC
:1004D800080000307102233003197002031C7D2AC2
:1004E800003071022D300319700203187D2A033081
:1004F8000800003071022D3003197002031C862A8F
:1005080004300800053008000130FC007C08200099
:10051800A60764302606031D08000030A600013037
:10052800FC007C082000A5073C302506031D0800B8
:100538000130FC007C082000A4070030A5003C30F6
:100548002406031DB42A0130FC007C082000A30700
:100558000030A40018302306031DB42A0030A3007D
:1005680083313F230800700871040319DE2AF5015E
:10057800F50AF11BC92A0130F035F10D890BC02AA3
:100588000130F4007408F507BD2A71087302031DD1
:10059800CF2A70087202031CD52A7008F20271086B
:1005A800F33B0130F136F00C890BD62A0130F50205
:1005B800031DC92A7308F1007208F0000800F4004E
:1005C800F50108307502031808007408F2000730B6
:1005D800F236890BEC2A72080139F300F30EF30D99
:1005E80020000D087306DF3973068D000D10833166
:1005F8004C23823120000D1483314C2382310310A7
:10060800F40D0130F2007208F507E52AF9007908BF
:100618008231E322833176088231E32283317708FD
:100628008231E322833178088231E322833120004A
:100638008D1483314C2320008D1008003F3406347C
:100648005B344F3466346D347D3407347F346F3413
:1006580077347C3439345E347934713422008E1521
:100668000E1625008E150E1621000E128E1124006E
:100678000E168E150800F601F030FA007A08F70019
:100688000F30FB007B08F800FF3083310A23080095
:100698000A30F0007008F100710803190800000022
:1006A8000130F102502B640080010131890B582B75
:0A06B80000348131C3218331602B2F
:020000040001F9
:04000E00E2FFFFFF0F
:00000001FF
