:020000040000FA
:0400000080318328A0
:100008007E14803120002108031D232820030319B2
:100018001428003042021E3003194102031C232811
:10002800A2010130D6005608A100A001C101C201F9
:10003800AB01AC010E110B1027009910812820008C
:100048002103031D36282700991C36282000220387
:10005800031D36280030AC000130AB008331F82393
:1000680080313E280B183B282700991C3E280B108E
:10007800270099100B1D812820002103031D4E28FD
:10008800220803194B282B082C0403194E28803109
:10009800902080318231B02280310A30F000003067
:1000A800F10020004608D7004508D600C50A031904
:1000B800C60A5608F2005708F30083312D23803111
:1000C80070087104031D7F2803102000C90D0E0E4F
:1000D800890C0139D6005608C9040F304905D600E5
:1000E80003305606031D7F282008031D7F28013092
:1000F800D6005608A0008331EF237E100900803116
:10010800852820308400003085002B308331E4239B
:100118007E1020008331DD2B20002208031D9B2840
:1001280020008E1C9B282000A901AA01080020009D
:100138008E1CA32801302000A7070030A83D0130FD
:100148002000A9070030AA3D00302A0264300319B4
:100158002902031C08002808F10020002708F000E5
:100168008231652280312000CB004B08D50055082C
:100178008231F22280312000A901AA01A701A80139
:100188002208031DD228053020005506031D08004B
:1001980001302000A2000030AD0008002208031939
:1001A8000800043020005506031908002030860096
:1001B800003087004B312D30CB000030CC00403F61
:1001C8004B07CD00413F4C3DCE004D0886004E0800
:1001D80087005508810001302000AB070030AC3D96
:1001E80000302C020B3003192B02031C08002E08C8
:1001F800031908292F08031908290030A200003024
:10020800A100AB01AC01080023082000CB00CC0101
:100218004B08CF004C08D000200024082000CB0059
:10022800CC014B08D1004C08D200813171218031BA
:10023800700871040319292920004F082000A30021
:10024800200051082000A40046292000230820008F
:10025800CB00CC0150084C06031D34294F084B062F
:10026800031D4329200024082000CB00CC0152089C
:100278004C06031D412951084B06031946298331B1
:10028800A823803100302000A2000030A100AB017B
:10029800AC012000D301D4015408803ACB0080304F
:1002A8004B02031D592914305302031808002D303E
:1002B8002000CB000030CC0053084B07CD00540879
:1002C8004C3DCE004D0886004E0887000530810061
:1002D8000130D3070030D43D502920003008F20007
:1002E8000230F235890B7529200031087207F300B6
:1002F80073082000A3003208F2000430F235890B9D
:10030800822920003308F3000130F335FF3E031D36
:10031800892973357207F400200034087407F50042
:1003280075082000A400FC01FB01FB0A0A307B02CF
:100338000318B7297B08F200F3012D30F4000030D0
:10034800F5007208740786007308753D8700010878
:10035800F6007608FC060130F2007208FB070A3046
:100368007B02031C9E297C080319BE2903307C06E6
:10037800031DCE2920003718CE290230370603196D
:10038800C829F701F801CC290C30F7000030F80033
:100398007708E9297C030319D52902307C06031D57
:1003A800EE29200037030319DD2903303706031D22
:1003B800EE29033037060319E429F901FA01E8297F
:1003C8000C30F9000030FA007908F20072082000B9
:1003D800A307FA2900302000A2000030A100AB01D9
:1003E800AC01FF30F000FF30F1000800F001F1012E
:1003F80008008B178B1521001908FC390238990061
:1004080019088739503899008331B8238131210080
:1004180095138C0122008C0124008C012700910186
:10042800920121008D0122008D0124008D012700F9
:100438009401950121008E0122008E0101302400D3
:100448008E0027009701980121008E1624008E1631
:1004580021008E1424008E14270097142000D9013F
:10046800DA015A08803AD80080305802031D3E2A23
:10047800143059020318582A05302000D8005908AA
:100488002D3E86008701580881000130D9070030C9
:10049800DA3D5A08803AD80080305802031D562A9F
:1004A80014305902031C402A22000D1120000E119D
:1004B80021000E1424000E148331C52320000C14CF
:1004C800080000307102053003197002031C752AF8
:1004D800003071020F30031970020318752A0030BA
:1004E8000800003071020F3003197002031C852ABE
:1004F800003071021930031970020318852A01307F
:10050800080000307102193003197002031C952A83
:10051800003071022330031970020318952A023043
:10052800080000307102233003197002031CA52A49
:10053800003071022D30031970020318A52A033008
:100548000800003071022D3003197002031CAE2A16
:1005580004300800053008000130FD007D08200047
:10056800A60732302606031DBC2A22008D15C32A91
:10057800643020002606031DC32A22008D11643032
:1005880020002606031D08000030A6000130FD00EB
:100598007D082000A5073C302506031D0800013012
:1005A800FD007D082000A4070030A5000130C10728
:1005B8000030C23D3C302406031DEF2A0130FD0007
:1005C8007D082000A3070030A40018302306031D6F
:1005D800EF2A0030A3008331A8230800F000700838
:1005E800031DFC2A22000C158C110C128C12080019
:1005F8007003031D052B22000C118C150C128C1294
:10060800080002307006031D0F2B22000C118C11FC
:100618000C168C12080003307006031D192B2200DB
:100628000C118C110C128C16080004307006031D76
:10063800232B22000C158C150C168C16080005307F
:100648007006031D080022000C118C110C128C126C
:100658000800700871040319542BF501F50AF11B01
:100668003F2B0130F035F10D890B362B0130F400AA
:100678007408F507332B71087302031D452B7008A6
:100688007202031C4B2B7008F2027108F33B013015
:10069800F136F00C890B4C2B0130F502031D3F2B72
:1006A8007308F1007208F0000800F400F501083042
:1006B8007502031808007408F2000730F236890B37
:1006C800622B72080139F300F30EF30D22000D08B6
:1006D8007306DF3973068D000D108331D223833101
:1006E80022000D148331D22383310310F40D01301D
:1006F800F2007208F5075B2BF9007908833159235A
:10070800833176088331592383317708833159231C
:100718008331780883315923833122008D14833142
:10072800D22322008D1008003F3406345B344F3446
:1007380066346D347D3407347F346F3477347C34D9
:1007480039345E34793471345A30FA007A08F60054
:10075800A530FB007B08F7005A30FC007C08F80045
:10076800A5308331802308008B178B122100951147
:1007780095121508F83904389500E73020009500DF
:10078800080022008E150E1625008E150E16210063
:100798000E128E1124000E168E1508000A30F00075
:1007A8007008F10071080319080000000130F10217
:1007B800D62B8131FD2183318331F4238331E32B1F
:1007C800640080010131890BE52B00340B11E730FF
:1007D8002000950008000B11E73020009500080064
:1007E8008331EA238B1208008331EF238B12080030
:020000040001F9
:04000E00E2FFFFFF0F
:00000001FF
