:020000040000FA
:0400000080315F28C4
:100008007E1480312700991C1A2820002108031D1E
:100018001A282003031D1A280130D6005608A1000B
:10002800A0010E110B10270099105D280B181F282E
:100038002700991C22280B10270099100B1D5D28FA
:1000480082318422803120002103031D2E28803133
:100058006D2080310A30F0000030F10020004208A5
:10006800D7004108D600C10A0319C20A5608F2008F
:100078005708F3008231B322803170087104031DE0
:10008800592803102000C30D0E0E890C0139D60023
:100098005608C3040F304305D60003305606031D27
:1000A80059280130D6005608A0000B11E73020006F
:1000B80095007E10090080316128FD012030840000
:1000C800003085002430833146237E1020008331A0
:1000D8004C2B20008E1C752801302000A70700300B
:1000E800A83D01302000A9070030AA3D00302A02AF
:1000F800643003192902031C08002808F1002000B5
:100108002708F0008231392280312000C4004408D9
:10011800D3002000A901AA01A701A80105302000E9
:100128005306031DA12801302000A2000030AD00B5
:100138000030AC000130AB00080020002208031991
:1001480008000430200053060319080020308600F8
:10015800003087004B312D30C4000030C500403FCF
:100168004407C600413F453DC7004608860047088A
:1001780087005308810001302000AB070030AC3DF8
:1001880000302C020B3003192B02031C08002E0828
:100198000319D8282F080319D8280030A2000030E6
:1001A800A100AB01AC01080023082000C400C50170
:1001B8004408C9004508CA00200024082000C400DB
:1001C800C5014408CB004508CC00200030082000B9
:1001D800C4000230C435890BEE2820003108200005
:1001E8004407C50045082000A30032082000C400C9
:1001F8000430C435890BFD28200033082000C500D1
:100208000130C535FF3E031D052945354407C600A5
:100218002000340820004607C70047082000A40033
:100228002000D501D401D40A0A3054020318352914
:100238005408C400C5012D30C6000030C70044086A
:10024800460786004508473D87000108C80048085A
:10025800D5060130C4004408D4070A305402031CF0
:100268001C29550803193C2903305506031D4E293E
:10027800200037184E290230370603194729200075
:10028800CD01CE014C290C302000CD000030CE002D
:100298004D086C29200055030319562902305506CC
:1002A800031D71292000370303195E29033037061F
:1002B800031D712903303706031966292000CF0171
:1002C800D0016B290C302000CF000030D0004F083F
:1002D800C40044082000A307792900302000A200A8
:1002E8000030A100AB01AC01080023082000C400C5
:1002F800C5014A084506031D832949084406031D0C
:100308009229200024082000C400C5014C08450695
:10031800031D90294B0844060319952983312E2380
:10032800803100302000A20020000E15003020008F
:10033800A100AB01AC012000D101D2015208803AE2
:10034800C40080304402031DAB2914305102031845
:1003580008002D302000C4000030C50051084407B3
:10036800C6005208453DC700460886004708870072
:10037800053081000130D1070030D23DA2298B170A
:100388008B158B1621001908FC39023899001908B9
:10039800873950389900951195121508F83904389D
:1003A8009500E73020009500210095138C0122006C
:1003B8008C0124008C0127009101920121008D01FC
:1003C80022008D0124008D01270094019501210050
:1003D8008E0122008E0124008E01270097019801CA
:1003E80021008E1624008E1621008E1424008E14EF
:1003F800270097142000A301A401A501A601A001CC
:10040800A101A201A701A801A901AA01AB01AC01A0
:10041800D901DA015A08803AD80080305802031D01
:10042800172A143059020318312A05302000D80041
:1004380059082D3E86008701580881000130D907E8
:100448000030DA3D5A08803AD80080305802031D3F
:100458002F2A14305902031C192A20008D150E1159
:1004680021000E1424000E1408000030710205301B
:1004780003197002031C492A003071020F30031956
:1004880070020318492A00300800003071020F304A
:1004980003197002031C592A00307102193003191C
:1004A80070020318592A013008000030710219300F
:1004B80003197002031C692A0030710223300319E2
:1004C80070020318692A02300800003071022330D4
:1004D80003197002031C792A003071022D300319A8
:1004E80070020318792A03300800003071022D3099
:1004F80003197002031C822A043008000530080022
:100508000130FC007C082000A60764302606031D85
:1005180008000030A6000130FC007C082000A50778
:100528003C302506031D08000130FC007C08200033
:10053800A4070030A5003C302406031DB02A013072
:10054800FC007C082000A3070030A4001830230614
:10055800031DB02A0030A30083312E230800700841
:1005680071040319DA2AF501F50AF11BC52A0130CD
:10057800F035F10D890BBC2A0130F4007408F50739
:10058800B92A71087302031DCB2A70087202031C72
:10059800D12A7008F2027108F33B0130F136F00CF1
:1005A800890BD22A0130F502031DC52A7308F10010
:1005B8007208F0000800F400F5010830750203180D
:1005C80008007408F2000730F236890BE82A72082E
:1005D8000139F300F30EF30D20000D087306DF391F
:1005E80073068D000D1083313B23823120000D14DA
:1005F80083313B2382310310F40D0130F20072087D
:10060800F507E12AF90079088231DF22833176087B
:100618008231DF22833177088231DF228331780803
:100628008231DF22833120008D1483313B23200067
:100638008D1008003F3406345B344F3466346D3413
:100648007D3407347F346F3477347C3439345E3406
:1006580079347134F601F030FA007A08F7000F3077
:10066800FB007B08F800FF308331062308000A30BE
:10067800F0007008F100710803190800000001304B
:10068800F1023F2B640080010131890B472B0034B4
:080698008131C32183314F2B96
:020000040001F9
:04000E00E2FFFFFF0F
:00000001FF
