:020000040000FA
:0400000080315F28C4
:100008007E1480312700991C1A2820002108031D1E
:100018001A282003031D1A280130DA005A08A10003
:10002800A0010E110B10270099105D280B181F282E
:100038002700991C22280B10270099100B1D5D28FA
:1000480082317822803120002103031D2E2880313F
:100058006D2080310A30F0000030F10020004408A3
:10006800DB004308DA00C30A0319C40A5A08F2007D
:100078005B08F3008231F422803170087104031D9B
:10008800592803102000C60D0E0E890C0139DA001C
:100098005A08C6040F304605DA0003305A06031D15
:1000A80059280130DA005A08A0000B11E730200067
:1000B80095007E10090080316128FD012030840000
:1000C800003085002830833194237E10200083314E
:1000D8009A2B20008E1C752801302000A7070030BD
:1000E800A83D01302000A9070030AA3D00302A02AF
:1000F800643003192902031C08002808F1002000B5
:100108002708F00082312D2280312000C8004808DD
:10011800D80058088231B92280312000A901AA01EB
:10012800A701A801053020005806031DA5280130A5
:100138002000A2000030AD000030AC000130AB0060
:10014800080020002208031908000430200058067F
:100158000319080020308600003087004B312D300D
:10016800C8000030C900403F4807CA00413F493D28
:10017800CB004A0886004B088700580881000130E8
:100188002000AB070030AC3D00302C020B300319C7
:100198002B02031C08002E080319DD282F08031959
:1001A800DD2800302000A2000030A100AB01AC0126
:1001B800080023082000C800C9014808CD004908E4
:1001C800CE00200024082000C800C9014808CF003C
:1001D8004908D000200030082000C8000230C83587
:1001E800890BF3282000310820004807C900490876
:1001F8002000A30032082000C8000430C835890B4D
:100208000229200033082000C9000130C935FF3E0B
:10021800031D0A2949354807CA0020003408200070
:100228004A07CB004B082000A4002000D901D701C1
:10023800D70A5708C800C9012D30CA000030CB00C2
:1002480048084A07860049084B3D87000108CC004A
:100258004C08D9060130C8004808D7070A305702A9
:10026800031C1D29590803193D2903305906031D8C
:100278004F29200037184F2902303706031948291B
:100288002000D101D2014D290C302000D1000030CE
:10029800D20051086D29200059030319572902304B
:1002A8005906031DD5282000370303195F29033099
:1002B8003706031DD52803303706031967292000A0
:1002C800D301D4016C290C302000D3000030D400B5
:1002D8005308C80048082000A30723082000C800C6
:1002E800C9014E084906031D7B294D084806031D10
:1002F8008A29200024082000C800C901500849069E
:10030800031D88294F08480603198D2983317C234A
:10031800803100302000A20020000E15003020009F
:10032800A100AB01AC012000D501D6012D30200081
:10033800C8000030C90055084807CA005608493D9A
:10034800CB004A0886004B08870005308100013041
:10035800D5070030D63D5608803AC800803048029C
:10036800031DB82914305502031808009A298B1761
:100378008B158B1621001908FC39023899001908C9
:10038800873950389900951195121508F8390438AD
:100398009500E73020009500210095138C0122007C
:1003A8008C0124008C0127009101920121008D010C
:1003B80022008D0124008D01270094019501210060
:1003C8008E0122008E01013024008E002700970143
:1003D800980121008E1624008E1621008E14240008
:1003E8008E14270097142000A301A401A501A601DB
:1003F800A001A101A201A701A801A901AA01AB01BD
:10040800AC012100A101A20105302100A0002108B2
:100418002D3E86008701200881000130A1070030A9
:10042800A23D2208803AA00080302002031D1E2A27
:1004380014302102031C082A22000D1120000E117D
:1004480021000E1424000E1483316F2320000C1495
:10045800080000307102053003197002031C3D2AA0
:10046800003071020F300319700203183D2A003062
:100478000800003071020F3003197002031C4D2A66
:100488000030710219300319700203184D2A013027
:10049800080000307102193003197002031C5D2A2C
:1004A8000030710223300319700203185D2A0230EC
:1004B800080000307102233003197002031C6D2AF2
:1004C800003071022D300319700203186D2A0330B1
:1004D8000800003071022D3003197002031C762ABF
:1004E80004300800053008000130FC007C082000BA
:1004F800A60732302606031D842A22008D158A2A73
:1005080064302606031D8A2A22008D1164302000DB
:100518002606031D08000030A6000130FC007C08F8
:100528002000A50783317C2382313C30200025063A
:10053800031D08000130FC007C082000A4070030DF
:10054800A5003C302406031DB62A0130FC007C08B7
:100558002000A3070030A40018302306031DB62A84
:100568000030A30083317C230800F0007008031DCD
:10057800C32A22000C158C110C128C12080070036F
:10058800031DCC2A22000C118C150C128C120800A9
:1005980002307006031DD62A22000C118C110C168D
:1005A8008C12080003307006031DE02A22000C118B
:1005B8008C110C128C16080004307006031DEA2AF0
:1005C80022000C158C150C168C16080005307006C8
:1005D800031D080022000C118C110C128C1208004B
:1005E8007008710403191B2BF501F50AF11B062B82
:1005F8000130F035F10D890BFD2A0130F400740843
:10060800F507FA2A71087302031D0C2B7008720291
:10061800031C122B7008F2027108F33B0130F1360B
:10062800F00C890B132B0130F502031D062B730800
:10063800F1007208F0000800F400F5017408F200F7
:100648000730F236890B252B72080139F300F30EB7
:10065800F30D22000D087306DF3973068D000D10A7
:1006680083318923833122000D1483318923833117
:100678000310F40D0130F2007208F5070830750216
:1006880003180800222BF9007908833120238331CD
:1006980076088331202383317708833120238331FF
:1006A800780883312023833122008D1483318923F4
:1006B80022008D1008003F3406345B344F34663412
:1006C8006D347D3407347F346F3477347C34393477
:1006D8005E347934713422008E150E1625008E157D
:1006E8000E1621000E128E1124000E168E1508000B
:1006F800F601F030FA007A08F7000F30FB007B08AB
:10070800F800FF308331472308000A30F0007008F2
:10071800F10071080319080000000130F1028D2B67
:10072800640080010131890B952B00348131BB2194
:0407380083319D2B41
:020000040001F9
:04000E00E2FFFFFF0F
:00000001FF
