:020000040000FA
:0400000080316228C1
:100008007E1480312700991C1A2820002108031D1E
:100018001A282003031D1A280130D4005408A1000F
:10002800A0010E110B102700991060280B181F282B
:100038002700991C22280B10270099100B1D6028F7
:1000480082318D22803120002103031D2E2880312A
:100058006F2080310A30F0000030F10020004408A1
:10006800D5004308D400C30A0319C40A5408F2008F
:100078005508F30083310623803170087104031D8D
:100088005C2803102000C70D0E0E890C0139D4001E
:100098005408C7040F304705D40003305406031D25
:1000A8005C282008031D5C280130D4005408A000F7
:1000B8000B11E730200095007E100900803164287C
:1000C800203084000030850029308331A9237E1038
:1000D80020008331AF2B20008E1C772801302000B0
:1000E800A7070030A83D01302000A9070030AA3D2D
:1000F80000302A02643003192902031C080028086A
:10010800F10020002708F0008231422280312000CF
:10011800C9004908D30053088231CB22803120001E
:10012800A901AA01A701A801053020005306031D53
:10013800A72801302000A2000030AD000030AC003C
:100148000130AB0008002000220803190800043021
:10015800200053060319080020308600003087006D
:100168004B312D30C9000030CA00403F4907CB0051
:10017800413F4A3DCC004B0886004C088700530895
:10018800810001302000AB070030AC3D00302C026C
:100198000B3003192B02031C08002E080319DE2854
:1001A8002F080319DE280030A2000030A100AB019F
:1001B800AC01080023082000C900CA014908CD0085
:1001C8004A08CE00200024082000C900CA014908B6
:1001D800CF004A08D000813147218031700871046E
:1001E8000319FF2820004D082000A30020004F0815
:1001F8002000A4001C29200023082000C900CA01EF
:100208004E084A06031D0A294D084906031D1929E7
:10021800200024082000C900CA0150084A06031D0E
:1002280017294F08490603191C2983318123803176
:1002380000302000A2000030A100AB01AC0120007A
:10024800D101D2015208803AC90080304902031D09
:100258002F2914305102031808002D302000C9003E
:100268000030CA0051084907CB0052084A3DCC006B
:100278004B0886004C088700053081000130D10703
:100288000030D23D262920003008F2000230F23535
:10029800890B4B29200031087207F30073082000EE
:1002A800A3003208F2000430F235890B58292000E7
:1002B8003308F3000130F335FF3E031D5F29733522
:1002C8007207F400200034087407F5007508200050
:1002D800A400FC01FB01FB0A0A307B0203188D29EC
:1002E8007B08F200F3012D30F4000030F5007208AD
:1002F800740786007308753D87000108F6007608C4
:10030800FC060130F2007208FB070A307B02031C6E
:1003180074297C080319942903307C06031DA42939
:1003280020003718A4290230370603199E29F7013F
:10033800F801A2290C30F7000030F8007708BF292F
:100348007C030319AB2902307C06031DC429200055
:1003580037030319B32903303706031DC4290330B3
:1003680037060319BA29F901FA01BE290C30F90038
:100378000030FA007908F20072082000A307D0299B
:1003880000302000A2000030A100AB01AC01FF301A
:10039800F000FF30F1000800F001F10108008B17B0
:1003A8008B158B1621001908FC3902389900190899
:1003B800873950389900951195121508F83904387D
:1003C8009500E73020009500210095138C0122004C
:1003D8008C0124008C0127009101920121008D01DC
:1003E80022008D0124008D01270094019501210030
:1003F8008E0122008E01013024008E002700970113
:10040800980121008E1624008E1621008E142400D7
:100418008E14270097142000D701D8015808803A75
:10042800D60080305602031D1B2A143057020318C9
:10043800352A05302000D60057082D3E8600870152
:10044800560881000130D7070030D83D5808803A57
:10045800D60080305602031D332A14305702031C7D
:100468001D2A22000D1120000E1121000E14240057
:100478000E148331912320000C14080000307102FF
:10048800053003197002031C522A003071020F3024
:10049800031970020318522A003008000030710254
:1004A8000F3003197002031C622A003071021930E0
:1004B800031970020318622A013008000030710223
:1004C800193003197002031C722A0030710223309C
:1004D800031970020318722A0230080000307102F2
:1004E800233003197002031C822A003071022D3058
:1004F800031970020318822A0330080000307102C1
:100508002D3003197002031C8B2A043008000530B3
:1005180008000130FD007D082000A60732302606BD
:10052800031D992A22008D15A02A64302000260672
:10053800031DA02A22008D11643020002606031D09
:1005480008000030A6000130FD007D082000A50746
:100558003C302506031D08000130FD007D08200001
:10056800A4070030A5003C302406031DC82A01302A
:10057800FD007D082000A3070030A40018302306E2
:10058800031DC82A0030A300833181230800F0002E
:100598007008031DD52A22000C158C110C128C1220
:1005A80008007003031DDE2A22000C118C150C12A2
:1005B8008C12080002307006031DE82A22000C1174
:1005C8008C110C168C12080003307006031DF22AD9
:1005D80022000C118C110C128C16080004307006C5
:1005E800031DFC2A22000C158C150C168C1608000D
:1005F80005307006031D080022000C118C110C1226
:100608008C1208007008710403192D2BF501F50AE6
:10061800F11B182B0130F035F10D890B0F2B013030
:10062800F4007408F5070C2B71087302031D1E2BC8
:1006380070087202031C242B7008F2027108F33B45
:100648000130F136F00C890B252B0130F502031D22
:10065800182B7308F1007208F0000800F400F50187
:1006680008307502031808007408F2000730F236E3
:10067800890B3B2B72080139F300F30EF30D2200AE
:100688000D087306DF3973068D000D1083319E2324
:10069800833122000D1483319E2383310310F40D1E
:1006A8000130F2007208F507342BF900790883311C
:1006B80032238331760883313223833177088331BB
:1006C80032238331780883313223833122008D1419
:1006D80083319E2322008D1008003F3406345B349A
:1006E8004F3466346D347D3407347F346F34773457
:1006F8007C3439345E34793471345A30FA007A08EB
:10070800F600A530FB007B08F7005A30FC007C0897
:10071800F800A53083315923080022008E150E16E3
:1007280025008E150E1621000E128E1124000E16AD
:100738008E1508000A30F0007008F10071080319DE
:10074800080000000130F102A22B64008001013191
:0E075800890BAA2B00348131D3218331B22BBF
:020000040001F9
:04000E00E2FFFFFF0F
:00000001FF
