:020000040000FA
:0400000080315F28C4
:100008007E1480312700991C1A2820002108031D1E
:100018001A282003031D1A280130CF004F08A10019
:10002800A0010E110B10270099105D280B181F282E
:100038002700991C22280B10270099100B1D5D28FA
:1000480082311B22803120002103031D2E2880319C
:100058006D2080310A30F0000030F10020004208A5
:10006800D0004108CF00C10A0319C20A4F08F200A4
:100078005008F30082314A22803170087104031D50
:10008800592803102000C30D0E0E890C0139CF002A
:100098004F08C3040F304305CF0003304F06031D3C
:1000A80059280130CF004F08A0000B11E73020007D
:1000B80095007E10090080316128FD012030840000
:1000C8000030850024308231DD227E10200082310C
:1000D800E32A20008E1C752801302000A707003075
:1000E800A83D01302000A9070030AA3D00302A02AF
:1000F800643003192902031C08002808F1002000B5
:100108002708F0008131D02180312000C400440844
:10011800CE002000A901AA01A701A80105302000EE
:100128004E06031D9D2801302000A200AB01AC0142
:1001380008002000220803190800043020004E0699
:100148000319080020308600003087004B312D301D
:10015800C4000030C500403F4407C600413F453D4C
:10016800C70046088600470887004E08810001300E
:100178002000AB070030AC3D00302C0209300319D9
:100188002B02031C08002D080319D4282E08031974
:10019800D4280030A2000030A100AB01AC01080057
:1001A80023082000C400C5014408C8004508C90048
:1001B800200024082000C400C5014408CA004508DE
:1001C800CB0020002F082000C4000230C435890B62
:1001D800EA282000300820004407C5004508200010
:1001E800A30031082000C4000430C435890BF92865
:1001F800200032082000C5000130C535FF3E031D30
:10020800012945354407C600200033082000460769
:10021800C70047082000A40023082000C400C50127
:1002280049084506031D1A2948084406031D2929BB
:10023800200024082000C400C5014B084506031D02
:1002480027294A08440603192C298231C5228031FE
:1002580000302000A20020000E1500302000A10070
:10026800AB01AC012000CC01CD014D08803AC4009F
:1002780080304402031D422914304C020318080040
:100288002D302000C4000030C5004C084407C600CB
:100298004D08453DC70046088600470887000530D9
:1002A80081000130CC070030CD3D39298B178B15E3
:1002B8008B1621001908FC3902389900190887396A
:1002C80050389900951195121508F8390438950099
:1002D800E73020009500210095138C0122008C0145
:1002E80024008C0127009101920121008D01220038
:1002F8008D0124008D0127009401950121008E01B4
:1003080022008E0124008E01270097019801210008
:100318008E1624008E1621008E1424008E142700B9
:1003280097142000A301A401A501A601A001A10121
:10033800A201A701A801A901AA01AB01AC01D20140
:10034800D3015308803AD10080305102031DAE29F1
:10035800143052020318C82905302000D100520871
:100368002D3E86008701510881000130D2070030F8
:10037800D33D5308803AD10080305102031DC6296D
:1003880014305202031CB02920008D150E112100D3
:100398000E1424000E1408000030710205300319F1
:1003A8007002031CE029003071020F30031970023B
:1003B8000318E02900300800003071020F300319DB
:1003C8007002031CF0290030710219300319700201
:1003D8000318F029013008000030710219300319A0
:1003E8007002031C002A00307102233003197002C6
:1003F8000318002A02300800003071022330031964
:100408007002031C102A003071022D30031970028B
:100418000318102A03300800003071022D30031928
:100428007002031C192A0430080005300800013046
:10043800FC007C082000A60764302606031D08007F
:100448000030A6000130FC007C082000A5073C30E5
:100458002506031D08000130FC007C082000A407C5
:100468000030A5003C302406031D472A0130FC005B
:100478007C082000A3070030A40018302306031DC1
:10048800472A0030A3008231C52208007008710491
:100498000319712AF501F50AF11B5C2A0130F035C0
:1004A800F10D890B532A0130F4007408F507502A1E
:1004B80071087302031D622A70087202031C682AFD
:1004C8007008F2027108F33B0130F136F00C890B29
:1004D800692A0130F502031D5C2A7308F1007208CD
:1004E800F0000800F400F501083075020318080050
:1004F8007408F2000730F236890B7F2A7208013936
:10050800F300F30EF30D20000D087306DF397306B0
:100518008D000D108231D222823120000D148231DB
:10052800D22282310310F40D0130F2007208F5076F
:10053800782AF90079088231762282317608823168
:1005480076228231770882317622823178088231A8
:100558007622823120008D148231D22220008D1023
:1005680008003F3406345B344F3466346D347D34D0
:1005780007347F346F3477347C3439345E347934DB
:100588007134F601F030FA007A08F7000F30FB00FA
:100598007B08F800FF3082319D2208000A30F00005
:1005A8007008F10071080319080000000130F10219
:1005B800D62A640080010131890BDE2A003481319A
:0605C8005A218231E62AEF
:020000040001F9
:04000E00E2FFFFFF0F
:00000001FF
