:020000040000FA
:0400000080314128E2
:100008007E1480312700991C192821002108031D1E
:1000180019282003031D1928A101A10AA001200005
:100028000E110B10270099103F280B181E282700C7
:10003800991C21280B10270099102100210303196E
:100048000B1D312882316522803180316B2080314F
:100058000B11E730200095003F280B1D3F28823107
:10006800652280310B11E730200095008E1E3F2855
:100078002100A001A00A7E10090080314328E83041
:1000880084008230850034308600003087001030CC
:100098008231F8228031FD01203084000030850053
:1000A80014308231FE228031A03084000030850077
:1000B80039308231FE2280312030840001308500C1
:1000C80028308231FE227E1020008331042B20004C
:1000D8008E1C732801302100AB070030AC3D013085
:1000E8002100AD070030AE3D2E08803AF700803081
:1000F8007702031D812864302D02031C08002100AB
:100108002C08F1002B08F00081316B218031710837
:100118002000CB007008CA002100AD01AE01AB0180
:10012800AC01053020004A064B04031DA12821001C
:10013800A201A20AAF01B0010800043020004A065B
:100148004B04031908002100220803190800053090
:1001580020004A064B040319080021002F35B13E40
:100168008600870120004A08C03F4B08C13F013084
:100178002100AF070030B03D3008803AF7008030EA
:100188007702031DC92806302F02031C080021002E
:10019800310832040319D928330834040319D9283B
:1001A800A201A101AF01B001080024082000C50088
:1001B800210023082000C400210026082000C700D1
:1001C800210025082000C6001730A03E86008701C0
:1001D8001530A03E84008501003FF700013FF8007C
:1001E800F735F80DF735F80D403F77072100A300E4
:1001F800413F783DA4001D30A03E860087011B309A
:10020800A03E84008501003FF700013FF800F73564
:10021800F80DF735F80D1930A03E84008501003F30
:10022800F900013FFA00F90EFA0EF030FA057908E4
:100238000F39FA04F030F90577087907FB007808D8
:100248007A3DFC00403F7B07A500413F7C3DA6006E
:100258002000450821002406031D362920004408F3
:1002680021002306031D44292000470821002606F3
:10027800031D4229200046082100250603194729A5
:100288008231BC2280312100A20120000E152100FC
:10029800A101AF01B0012000C801C9014908803A95
:1002A800F70080307702031D5B29143048020318D9
:1002B800080020004835B13E860087010530C03F60
:1002C8000030C13F0130C8070030C93D52297108CC
:1002D800803AF20080307202031D742905307002E2
:1002E800031C84297108803AF20080307202031DD1
:1002F8007F290F30700203188429F001F1010800EA
:100308007108803AF20080307202031D8D290F3087
:100318007002031C9F297108803AF2008030720233
:10032800031D98291930700203189F290130F00025
:100338000030F10008007108803AF2008030720243
:10034800031DA82919307002031CBA297108803AC4
:10035800F20080307202031DB329233070020318A3
:10036800BA290230F0000030F10008007108803A24
:10037800F20080307202031DC32923307002031C6F
:10038800D5297108803AF20080307202031DCE2907
:100398002D3070020318D5290330F0000030F10029
:1003A80008007108803AF20080307202031DDE29CD
:1003B8002D307002031CE5290430F0000030F100F4
:1003C80008000530F0000030F10008008B178B158D
:1003D8008B1621001908FC39023899001908873949
:1003E80050389900951195121508F8390438950078
:1003F800E73020009500210095138C0122008C0124
:1004080024008C0127009101920121008D01220016
:100418008D0124008D0127009401950121008E0192
:1004280022008E0124008E012700970198012100E7
:100438008E1624008E1621008E1424008E14270098
:1004480097142100A301A401A501A601A701A801F1
:10045800A901AA01A001A101A201AB01AC01AD0152
:10046800AE01AF01B0012000CD01CE014E08803AA7
:10047800CC0080304C02031D432A14304D0203186F
:100488005D2A20004D35B13E860087010530C03F0A
:100498000030C13F0130CD070030CE3D4E08803AD4
:1004A800CC0080304C02031D5B2A14304D02031C23
:1004B800452A20008D150E1121000E1424000E145B
:1004C800080001302100A9070030AA3D6430290640
:1004D8002A04031D0800A901AA010130A70700305A
:1004E800A83D3C3027062804031D08000130A50755
:1004F8000030A63DA701A8013C3025062604031DAF
:10050800922A0130A3070030A43DA501A6011830A6
:1005180023062404031D922AA301A4018231BC22CC
:100528000800F500F601083076020318080075087F
:10053800F3000730F336890B9E2A73080139F4005B
:10054800F40EF40D20000D087406DF3974068D00D2
:100558000D108231D322823120000D148231D32232
:1005680082310310F50D0130F3007308F607972A5E
:10057800FF308231952282310030823195228231DA
:10058800F0308231952282310F30823195228231CA
:1005980020008D148231D32220008D1008000A30EB
:1005A800F1000030F2007208803AF00080307002EA
:1005B800031DE02A01307102031C08000000FF300F
:1005C800F107FF30F23DD72A3F3406345B344F340D
:1005D80066346D347D3407347F346F3477347C343B
:1005E80039345E3479347134FE0012001E00FE0B7B
:1005F800F92A0034640080010131890BFF2A003494
:080608008131EA218331072B47
:020000040001F9
:04000E00E2FFFFFF0F
:00000001FF
