:020000040000FA
:04000000803187289C
:100008007E14803120002108031D232820030319B2
:100018001428003042021E3003194102031C232811
:10002800A2010130D7005708A100A001C101C201F7
:10003800AB01AC010E110B10270099108528200088
:100048002103031D3A282700991C3A28200022037F
:10005800031D3A282B082C04031D36280030AC0059
:100068000130AB0084311424803142280B183F281A
:100078002700991C42280B10270099100B1D852872
:1000880020002103031D5228220803194F282B089A
:100098002C04031952288031942080318231CC22DB
:1000A80080310A30F0000030F10020004608D80006
:1000B8004508D700C50A0319C60A5708F2005808A8
:1000C800F30083314923803170087104031D8328AC
:1000D80003102000CA0D0E0E890C0139D7005708ED
:1000E800CA040F304A05D70003305706031D83287A
:1000F8002008031D83280130D7005708A000843149
:100108000B247E10090080318928203084000030BB
:1001180085002C30843100247E1020008331F92B97
:1001280020002208031DA12820008E1CA1282000E1
:10013800A701A801A901AA01080020008E1CAC286B
:1001480001302000A7070030A83D2000C901B028D1
:100158000130CC004C08C90701302000A907003045
:10016800AA3D00302A026430031929020318BF2867
:100178002208031908000530200049020318C8287E
:10018800200022030319080020002808F10020009D
:100198002708F0008231812280312000CC004C08F1
:1001A800D600560883310E2380312000C901200073
:1001B800A901AA01A701A8012208031DEE280530FC
:1001C80020005606031D080001302000A200003060
:1001D800AD00080022080319080004302000560664
:1001E8000319080020308600003087004B312D307D
:1001F800CC000030CD00403F4C07CE00413F4D3D84
:10020800CF004E0886004F0887005608810001304D
:100218002000AB070030AC3D00302C020B30031936
:100228002B02031C08002E08031924292F08031980
:1002380024290030A2000030A100AB01AC01080065
:1002480023082000CC00CD014C08D0004D08D10077
:10025800200024082000CC00CD014C08D2004D0815
:10026800D30081318D21803170087104031945292B
:10027800200050082000A300200052082000A400FD
:100288006229200023082000CC00CD0151084D062A
:10029800031D502950084C06031D5F29200024081F
:1002A8002000CC00CD0153084D06031D5D295208DE
:1002B8004C06031962298331C423803100302000A1
:1002C800A2000030A100AB01AC012000D401D5018F
:1002D8005508803ACC0080304C02031D7529143033
:1002E8005402031808002D302000CC000030CD0047
:1002F80054084C07CE0055084D3DCF004E088600E7
:100308004F088700053081000130D4070030D53D03
:100318006C2920003008F2000230F235890B91294F
:10032800200031087207F30073082000A300320888
:10033800F2000430F235890B9E2920003308F300BF
:100348000130F335FF3E031DA52973357207F4000C
:10035800200034087407F50075082000A400FC018B
:10036800FB01FB0A0A307B020318D3297B08F20041
:10037800F3012D30F4000030F50072087407860090
:100388007308753D87000108F6007608FC06013001
:10039800F2007208FB070A307B02031CBA297C08AA
:1003A8000319DA2903307C06031DEA2920003718CF
:1003B800EA29023037060319E429F701F801E82988
:1003C8000C30F7000030F8007708052A7C03031981
:1003D800F12902307C06031D0A2A2000370303197D
:1003E800F92903303706031D0A2A03303706031993
:1003F800002AF901FA01042A0C30F9000030FA0049
:100408007908F20072082000A307162A003020009D
:10041800A2000030A100AB01AC01FF30F000FF30BA
:10042800F1000800F001F10108008B178B1521007D
:100438001908FC3902389900190887395038990089
:100448008331D4238231210095138C0122008C0141
:1004580024008C0127009101920121008D012200C6
:100468008D0124008D0127009401950121008E0142
:1004780022008E01013024008E0027009701980188
:1004880021008E1624008E1621008E1424008E144E
:10049800270097142000DA01DB015B08803AD900B5
:1004A80080305902031D5A2A14305A020318742A3C
:1004B80005302000D9005A082D3E860087015908CA
:1004C80081000130DA070030DB3D5B08803AD90053
:1004D80080305902031D722A14305A02031C5C2A08
:1004E80022000D1120000E1121000E1424000E14FC
:1004F8008331E12320000C1408000030710205301C
:1005080003197002031C912A003071020F3003197D
:1005180070020318912A00300800003071020F3071
:1005280003197002031CA12A003071021930031943
:1005380070020318A12A0130080000307102193036
:1005480003197002031CB12A003071022330031909
:1005580070020318B12A02300800003071022330FB
:1005680003197002031CC12A003071022D300319CF
:1005780070020318C12A03300800003071022D30C0
:1005880003197002031CCA2A043008000530080049
:100598000130FD007D082000A60732302606031D25
:1005A800D82A22008D15DF2A643020002606031D74
:1005B800DF2A22008D11643020002606031D080062
:1005C8000030A6000130FD007D082000A5073C3062
:1005D8002506031D08000130FD007D082000A40742
:1005E8000030A5000130C1070030C23D3C30240670
:1005F800031D0B2B0130FD007D082000A3070030F0
:10060800A40018302306031D0B2B0030A3008331F0
:10061800C4230800F0007008031D182B22000C15D5
:100628008C110C128C1208007003031D212B220060
:100638000C118C150C128C12080002307006031D68
:100648002B2B22000C118C110C168C120800033075
:100658007006031D352B22000C118C110C128C1600
:10066800080004307006031D3F2B22000C158C1562
:100678000C168C16080005307006031D08002200B1
:100688000C118C110C128C120800700871040319DB
:10069800702BF501F50AF11B5B2B0130F035F10DDC
:1006A800890B522B0130F4007408F5074F2B7108A1
:1006B8007302031D612B70087202031C672B7008FC
:1006C800F2027108F33B0130F136F00C890B682B0C
:1006D8000130F502031D5B2B7308F1007208F0006E
:1006E8000800F400F50108307502031808007408C2
:1006F800F2000730F236890B7E2B72080139F300BD
:10070800F30EF30D22000D087306DF3973068D0012
:100718000D108331EE23833122000D148331EE2333
:1007280083310310F40D0130F2007208F507772BBE
:10073800F90079088331752383317608833175236D
:1007480083317708833175238331780883317523A2
:10075800833122008D148331EE2322008D1008008E
:100768003F3406345B344F3466346D347D3407349B
:100778007F346F3477347C3439345E34793471346F
:100788005A30FA007A08F600A530FB007B08F7001B
:100798005A30FC007C08F800A53083319C230800FF
:1007A8008B178B122100951195121508F83904380A
:1007B8009500E73020009500080022008E150E16DF
:1007C80025008E150E1621000E128E1124000E160D
:1007D8008E1508000A30F0007008F100710803193E
:1007E800080000000130F102F22B82311922833116
:1007F800843110248331FF2B640080010131890B7F
:10080800012C00340B11E7302000950008000B1173
:10081800E730200095000800843106248B12080078
:0808280084310B248B1208003F
:020000040001F9
:04000E00E2FFFFFF0F
:00000001FF
