:020000040000FA
:0400000080313F28E4
:100008007E1480312700991C182820002108031D20
:1000180018282003031D1828A101A10AA0010E1108
:100028000B10270099103D280B181D282700991C34
:1000380020280B10270099102000210303190B1DFD
:10004800302882317B22803180314C2080310B1165
:10005800E730200095003D280B1D3D2882317B228A
:1000680080310B11E730200095008E1E3D28A0013D
:10007800A00A7E1009008031412820308400003019
:1000880085003A30833104237E10200083310A2B07
:1000980020008E1C542801302000AB070030AC3DF6
:1000A80001302000AD070030AE3D2E08803AF60042
:1000B80080307602031D6328643020002D02031C63
:1000C800080020002C08F10020002B08F0008131E6
:1000D8008221803171082000E1007008E0002000D2
:1000E800AD01AE01AB01AC01053020006006610432
:1000F800031D842801302000A200AF01B0010800D0
:10010800043020006006610403190800200022085A
:10011800031908000530200060066104031908006F
:1001280020308600003087004F31403FF600413FC5
:10013800F700F635F70D3130F8000030F900760891
:10014800780786007708793D87006008C03F610816
:10015800C13F01302000AF070030B03D3008803A81
:10016800F60080307602031DBC28063020002F02DE
:10017800031C08002000310832040319CE28330874
:1001880034040319CE280030A2000030A100AF01CA
:10019800B001080024082000DB002000230820000C
:1001A800DA00200026082000DD00200025082000B5
:1001B800DC00203086000030870057312030840072
:1001C800003085001531003FF600013FF700F63595
:1001D800F70DF635F70D403F7607F800413F773DBC
:1001E800F90078082000A30079082000A400203036
:1001F8008600003087005D312030840000308500A3
:100208001B31003FF600013FF700F635F70DF635D4
:10021800F70D20308400003085001931003FF800C8
:10022800013FF900F80EF90EF030F90578080F399A
:10023800F904F030F80576087807FA007708793D70
:10024800FB00403F7A07FC00413F7B3DFD007C08F6
:100258002000A5007D082000A60020005B082000E3
:100268002406031D3B2920005A0820002306031DED
:10027800492920005D0820002606031D4729200083
:100288005C082000250603194C2983310E23803190
:1002980000302000A20020000E1500302000A10030
:1002A800AF01B0012000DE01DF015F08803AF600EF
:1002B80080307602031D622914305E02031808009C
:1002C8000530F6000030F70020005F08F9005E08EE
:1002D800F800F835F90D3130FA000030FB007808E5
:1002E8007A07860079087B3D87007608C03F770843
:1002F800C13F0130DE070030DF3D59297108803ADF
:10030800F20080307202031D8B2905307002031C35
:100318009B297108803AF20080307202031D9629E9
:100328000F30700203189B29F001F10108007108D1
:10033800803AF20080307202031DA4290F30700247
:10034800031CB6297108803AF20080307202031D3E
:10035800AF29193070020318B6290130F0000030B7
:10036800F10008007108803AF20080307202031D23
:10037800BF2919307002031CD1297108803AF20094
:1003880080307202031DCA29233070020318D12954
:100398000230F0000030F10008007108803AF200E5
:1003A80080307202031DDA2923307002031CEC2905
:1003B8007108803AF20080307202031DE5292D3061
:1003C80070020318EC290330F0000030F100080037
:1003D8007108803AF20080307202031DF5292D3031
:1003E8007002031CFC290430F0000030F100080002
:1003F8000530F0000030F10008008B178B158B16C4
:1004080021001908FC390238990019088739503831
:100418009900951195121508F83904389500E730B8
:1004280020009500210095138C0122008C012400E6
:100438008C0127009101920121008D0122008D017C
:1004480024008D0127009401950121008E012200CE
:100458008E0124008E0127009701980121008E1635
:1004680024008E1621008E1424008E142700971461
:100478002000A301A401A501A601A701A801A901C3
:10048800AA01A001A101A201AB01AC01AD01AE011D
:10049800AF01B001E301E4016408803AE200803072
:1004A8006202031D592A143063020318732A2000BC
:1004B8006335313E860087010530C03F0030C13FBB
:1004C8000130E3070030E43D6408803AE200803000
:1004D8006202031D712A14306302031C5B2A200088
:1004E8008D150E1121000E1424000E140800013081
:1004F8002000A9070030AA3D643029062A04031DFC
:100508000800A901AA010130A7070030A83D3C3026
:1005180027062804031D08000130A5070030A63D62
:10052800A701A8013C3025062604031DA82A01308E
:10053800A3070030A43DA501A60118302306240412
:10054800031DA82AA301A40183310E230800F40087
:10055800F50108307502031808007408F200073026
:10056800F236890BB42A72080139F300F30EF30D41
:1005780020000D087306DF3973068D000D108231D7
:10058800F922823120000D148231F92282310310C0
:10059800F40D0130F2007208F507AD2AFF30823100
:1005A800AB22823100308231AB228231F03082318D
:1005B800AB2282310F308231AB22823120008D1480
:1005C8008231F92220008D1008003F3406345B3454
:1005D8004F3466346D347D3407347F346F34773468
:1005E8007C3439345E34793471340A30F000700860
:1005F800F10071080319080000000130F102FD2A1A
:10060800640080010131890B052B003482310122FD
:0A06180083310D2B8231D22208003D
:020000040001F9
:04000E00E2FFFFFF0F
:00000001FF
