:020000040000FA
:0400000080314728DC
:100008007E1480312700991C1D28200050085104B7
:10001800031D1D2852035304031D1D280130D00061
:100028000030D100D201D3010E150B102700991012
:1000380045280B1822282700991C25280B10270073
:10004800991020005003510403190B1D36288231E2
:10005800412280318031602080310B11E73020004F
:10006800950045280B1D45288231412280310B110E
:10007800E730200095008E1E45280130D200003060
:10008800D3007E10090080314928C43084008230B2
:100098008500A03086000030870010308231D422DD
:1000A800803120308400003085003C308231DA22F3
:1000B8007E1020008231E02A20008E1C6728013043
:1000C800CC070030CD3D0130CA070030CB3D4B088E
:1000D800803AF70080307702031D742864304A02A2
:1000E800031C080020004D08F1004C08F000813185
:1000F8004521803171082000E3007008E200CA0140
:10010800CB01CC01CD01053062066304031D9328A1
:100118000130CE000030CF00C801C901080004300A
:1001280062066304031908004E084F040319080007
:10013800053062066304031908004835203E86002E
:1001480087016208C03F6308C13F0130C80700301B
:10015800C93D4908803AF70080307702031DB62868
:1001680006304802031C0800200020082104031957
:10017800C628220823040319C628D001D101C801C2
:10018800C90108005B08DD005A08DC005908DF00D7
:100198005808DE000630203E860087010430203EE5
:1001A80084008501003FF700013FF800F735F80D9E
:1001B800F735F80D403F7707DA00413F783DDB001F
:1001C8000C30203E860087010A30203E84008501DD
:1001D800003FF700013FF800F735F80DF735F80D47
:1001E8000830203E84008501003FF900013FFA00F5
:1001F800F90EFA0EF030FA0579080F39FA04F030E2
:10020800F90577087907FB0078087A3DFC00403F3C
:100218007B07D800413F7C3DD9005B085D06031D84
:1002280017295A085C06031D212959085F06031D72
:100238001F2958085E060319242982319822803123
:1002480020000E11D001D101C801C901E001E1016E
:100258006108803AF70080307702031D3529143091
:1002680060020318080020006035203E86008701E0
:100278000530C03F0030C13F0130E0070030E13DAC
:100288002C297108803AF20080307202031D4E2931
:1002980005307002031C5E297108803AF200803034
:1002A8007202031D59290F30700203185E29F001EC
:1002B800F10108007108803AF20080307202031DD3
:1002C80067290F307002031C79297108803AF200FF
:1002D80080307202031D72291930700203187929BF
:1002E8000130F0000030F10008007108803AF20097
:1002F80080307202031D822919307002031C942970
:100308007108803AF20080307202031D8D29233073
:100318007002031894290230F0000030F100080040
:100328007108803AF20080307202031D9D29233043
:100338007002031CAF297108803AF2008030720203
:10034800031DA8292D3070020318AF290330F000CF
:100358000030F10008007108803AF2008030720223
:10036800031DB8292D307002031CBF290430F0008A
:100378000030F10008000530F0000030F1000800FE
:100388008B178B158B1621001908FC390238990038
:100398001908873950389900951195121508F839B8
:1003A80004389500E73020009500210095138C0152
:1003B80022008C0124008C01270091019201210068
:1003C8008D0122008D0124008D01270094019501E3
:1003D80021008E0122008E0124008E012700970142
:1003E800980121008E1624008E1621008E142400F8
:1003F8008E14270097142000DA01DB01D801D901F7
:10040800D601D701D401D501D201D301D001D10140
:10041800CE01CF01CC01CD01CA01CB01C801C90170
:10042800E501E6016608803AE40080306402031DB5
:100438001F2A143065020318392A20006535203E2A
:10044800860087010530C03F0030C13F0130E50715
:100458000030E63D6608803AE40080306402031DFF
:10046800372A14306502031C212A20008D150E112D
:1004780021000E1424000E14080001302000D407B7
:100488000030D53D643054065504031D0800D401DE
:10049800D5010130D6070030D73D3C305606570409
:1004A800031D08000130D8070030D93DD601D70117
:1004B8003C3058065904031D6E2A0130DA07003013
:1004C800DB3DD801D90118305A065B04031D6E2A9A
:1004D800DA01DB01823198220800F500F6010830C4
:1004E8007602031808007508F3000730F336890B05
:1004F8007A2A73080139F400F40EF40D20000D086F
:100508007406DF3974068D000D108231AF228231F6
:1005180020000D148231AF2282310310F50D013015
:10052800F3007308F607732AFF3082317122823193
:100538000030823171228231F03082317122823171
:100548000F3082317122823120008D148231AF2226
:1005580020008D1008000A30F1000030F200720807
:10056800803AF00080307002031DBC2A013071020D
:10057800031C08000000FF30F107FF30F23DB32AEA
:100588003F3406345B344F3466346D347D3407347D
:100598007F346F3477347C3439345E347934713451
:1005A800FE0012001E00FE0BD52A003464008001F4
:1005B8000131890BDB2A00348131C4218231E32ADD
:020000040001F9
:04000E00E2FFFFFF0F
:00000001FF
