:0400000080314C28D7
:100008007E14803120007F08FD002700191D1F285D
:10001800200050085104031D1F2852035304031DD8
:100028001F280130D0000030D100D201D3010B10BD
:100038002700190847280B1824282700191D2728E6
:100048000B102700190820005003510403190B1D39
:1000580038288231482280318031652080310B1167
:10006800E7302000950047280B1D47288231482299
:1000780080310B11E730200095008E1F4728013092
:10008800D2000030D3007D082000FF007E10090058
:1000980080314E286C30840083308500A030860083
:1000A80000308700103083317C2380312030840079
:1000B800003085003C30833182237E10200083315C
:1000C800882B20000E1D6C280130CC070030CD3D58
:1000D8000130C8070030C93D4908803AF700803030
:1000E8007702031D792864304802031C08002000A9
:1000F8004D08F1004C08F000813151218031710820
:100108002000E3007008E2006308F1006208F000D4
:100118008231D82280312000C801C901CC01CD012B
:10012800053062066304031DA0280130CA000030B0
:10013800CB00CE01CF010800043062066304031926
:1001480008004A084B0403190800053062066304D6
:10015800031908004E35203E860087016208C03F1B
:100168006308C13F0130CE070030CF3D4F08803AC9
:10017800F70080307702031DC32806304E02031CA7
:1001880008002000200821040319D328220823048A
:100198000319D328D001D101CE01CF010800550899
:1001A800DD005408DC005708DF005608DE00063082
:1001B800203E860087010430203E84008501003FF0
:1001C800F700013FF800F735F80DF735F80D403F17
:1001D8007707D400413F783DD5000C30203E86009B
:1001E80087010A30203E84008501003FF700013F67
:1001F800F800F735F80DF735F80D0830203E840083
:100208008501003FF900013FFA00F90EFA0EF030BF
:10021800FA0579080F39FA04F030F90577087907F3
:10022800FB0078087A3DFC00403F7B07D600413F41
:100238007C3DD70055085D06031D242954085C063B
:10024800031D2E2957085F06031D2C2956085E0634
:10025800031931298331402380312000D001D10195
:10026800CE01CF01E001E1016108803AF70080305A
:100278007702031D4129143060020318080020008A
:100288006035203E860087010530C03F0030C13F01
:100298000130E0070030E13D38297108803AF2006A
:1002A80080307202031D5A2905307002031C6A2926
:1002B8007108803AF20080307202031D65290F3000
:1002C800700203186A29F001F10108007108803AE8
:1002D800F20080307202031D73290F307002031C74
:1002E80085297108803AF20080307202031D7E2948
:1002F80019307002031885290130F0000030F10030
:1003080008007108803AF20080307202031D8E29BD
:1003180019307002031CA0297108803AF20080305D
:100328007202031D9929233070020318A029023094
:10033800F0000030F10008007108803AF2008030C7
:100348007202031DA92923307002031CBB297108FE
:10035800803AF20080307202031DB4292D307002F9
:100368000318BB290330F0000030F10008007108C1
:10037800803AF20080307202031DC4292D307002C9
:10038800031CCB290430F0000030F10008000530D0
:10039800F0000030F10008008B178B158B16210038
:1003A8001908FC390238990019088739503899001A
:1003B800951195121508F83904389500E730200092
:1003C8009500210095138C0122008C0124008C01DA
:1003D80027009101920121008D0122008D01240046
:1003E8008D0127009401950121008E0122008E01C4
:1003F80024008E0127009701980121008E17240000
:100408008E1721000E1524000E1527001715200041
:10041800D401D501D601D701D801D901DA01DB0110
:10042800D201D301D001D101CA01CB01CC01CD0148
:10043800C801C901CE01CF01E501E6016608803A8D
:10044800E40080306402031D2B2A1430650203186F
:10045800452A20006535203E860087010530C03FCB
:100468000030C13F0130E5070030E63D6608803ABC
:10047800E40080306402031D432A14306502031C23
:100488002D2A20000E17080001302000DA0700305E
:10049800DB3D3230F0000030F1005B08F3005A0811
:1004A800F20082319322823170087104031D672A99
:1004B800031022000C1C0314031C652A22000C14D0
:1004C800672A22000C10643020005A065B04031DC2
:1004D8000800DA01DB010130D8070030D93D3C3093
:1004E80058065904031D08000130D6070030D73DCF
:1004F800D801D9013C3056065704031D902A013013
:10050800D4070030D53DD601D7011830540655041C
:10051800031D902AD401D501833140230800F60138
:10052800F31F9D2AF209F309F20A0319F30AF601E7
:10053800F60AF11FA42AF009F109F00A0319F10AD1
:10054800700871040319CB2AF501F50AF11BB62AC4
:100558000130F035F10D890BAD2A0130F400740833
:10056800F507AA2A71087302031DBC2A70087202D3
:10057800031CC22A7008F2027108F33B0130F136FD
:10058800F00C890BC32A0130F502031DB62A760840
:100598000319D32AF209F309F20A0319F30A7308B3
:1005A800F1007208F000080070087104031DE22AC7
:1005B80022000C158C110C128C12080070037104A7
:1005C800031DEC2A22000C118C150C128C12080049
:1005D800023070067104031DF72A22000C118C11D9
:1005E8000C168C120800033070067104031D022BD0
:1005F80022000C118C110C128C16080004307006A5
:100608007104031D0D2B22000C158C150C168C166D
:100618000800053070067104031D080022000C1143
:100628008C110C128C120800F500F60108307602C5
:10063800031808007508F3000730F336890B212BDF
:1006480073080139F400F40DF40DF40D20000D08C1
:100658007406F73974068D000E12833157238331DF
:1006680020000E168331572383310310F50D013016
:10067800F3007308F6071A2BFF30833118238331F0
:100688000030833118238331F030833118238331CC
:100698000F3083311823833120008E16833157237E
:1006A80020008E1208000A30F1000030F2007208B3
:1006B800803AF00080307002031D642B0130710213
:1006C800031C08000000FF30F107FF30F23D5B2BF0
:1006D8003F3406345B344F3466346D347D3407342C
:1006E8007F346F3477347C3439345E347934713400
:1006F800FE0012001E00FE0B7D2B003464008001FA
:100708000131890B832B00348131D02183318B2B2C
:020000040001F9
:04000E00E2FFFFFF0F
:00000001FF
